{
  "contractName": "CoinFlip",
  "abi": [
    {
      "inputs": [],
      "payable": false,
      "stateMutability": "nonpayable",
      "type": "constructor"
    },
    {
      "anonymous": false,
      "inputs": [
        {
          "indexed": false,
          "internalType": "address",
          "name": "player",
          "type": "address"
        },
        {
          "indexed": false,
          "internalType": "bool",
          "name": "result",
          "type": "bool"
        }
      ],
      "name": "flipResult",
      "type": "event"
    },
    {
      "constant": true,
      "inputs": [],
      "name": "manager",
      "outputs": [
        {
          "internalType": "address",
          "name": "",
          "type": "address"
        }
      ],
      "payable": false,
      "stateMutability": "view",
      "type": "function"
    },
    {
      "constant": false,
      "inputs": [
        {
          "internalType": "uint256",
          "name": "_selectedSide",
          "type": "uint256"
        }
      ],
      "name": "flip",
      "outputs": [
        {
          "internalType": "bool",
          "name": "",
          "type": "bool"
        }
      ],
      "payable": true,
      "stateMutability": "payable",
      "type": "function"
    },
    {
      "constant": true,
      "inputs": [],
      "name": "getBalance",
      "outputs": [
        {
          "internalType": "uint256",
          "name": "",
          "type": "uint256"
        }
      ],
      "payable": false,
      "stateMutability": "view",
      "type": "function"
    }
  ],
  "bytecode": "0x608060405234801561001057600080fd5b50336000806101000a81548173ffffffffffffffffffffffffffffffffffffffff021916908373ffffffffffffffffffffffffffffffffffffffff16021790555061042d806100606000396000f3fe6080604052600436106100345760003560e01c806312065fe014610039578063221e885d14610064578063481c6a75146100aa575b600080fd5b34801561004557600080fd5b5061004e610101565b6040518082815260200191505060405180910390f35b6100906004803603602081101561007a57600080fd5b8101908080359060200190929190505050610109565b604051808215151515815260200191505060405180910390f35b3480156100b657600080fd5b506100bf6103d3565b604051808273ffffffffffffffffffffffffffffffffffffffff1673ffffffffffffffffffffffffffffffffffffffff16815260200191505060405180910390f35b600047905090565b600066038d7ea4c68000341015610188576040517f08c379a00000000000000000000000000000000000000000000000000000000081526004018080602001828103825260178152602001807f4d696e696d756d20626964203d20302e3030312045544800000000000000000081525060200191505060405180910390fd5b670de0b6b3a7640000341115610206576040517f08c379a00000000000000000000000000000000000000000000000000000000081526004018080602001828103825260138152602001807f4d6178696d756e20626964203d2031204554480000000000000000000000000081525060200191505060405180910390fd5b3447101561027c576040517f08c379a000000000000000000000000000000000000000000000000000000000815260040180806020018281038252601d8152602001807f496e73756666696369656e7420636f6e74726163742062616c616e636500000081525060200191505060405180910390fd5b600033905060006002428161028d57fe5b06905080841415610357578173ffffffffffffffffffffffffffffffffffffffff166108fc600234029081150290604051600060405180830381858888f193505050501580156102e1573d6000803e3d6000fd5b507fc212ccd4f44e3c5bfbcc44b7b2f61ff2089badd041c6c98b2acdecfeff1b116b336001604051808373ffffffffffffffffffffffffffffffffffffffff1673ffffffffffffffffffffffffffffffffffffffff168152602001821515151581526020019250505060405180910390a16103c8565b7fc212ccd4f44e3c5bfbcc44b7b2f61ff2089badd041c6c98b2acdecfeff1b116b336000604051808373ffffffffffffffffffffffffffffffffffffffff1673ffffffffffffffffffffffffffffffffffffffff168152602001821515151581526020019250505060405180910390a15b600192505050919050565b6000809054906101000a900473ffffffffffffffffffffffffffffffffffffffff168156fea265627a7a7231582056c3ffa698cbc18ddbd2b8ee037715639400c676961fd8926a5844525bd072a764736f6c63430005100032",
  "source": "pragma solidity 0.5.16;\r\n\r\ncontract CoinFlip{\r\n\r\n   address public manager;\r\n\r\n   constructor() public{\r\n        manager = msg.sender;\r\n    }\r\n\r\n   event flipResult(address player, bool result);\r\n\r\n   // 0 = heads, 1 = tails, 2 = unselected\r\n   function flip (uint _selectedSide) payable public returns(bool){\r\n        require(msg.value >= 0.001 ether,\"Minimum bid = 0.001 ETH\");\r\n        require(msg.value <= 1 ether, \"Maximun bid = 1 ETH\");\r\n        require(address(this).balance >= msg.value, \"Insufficient contract balance\");\r\n\r\n        address payable player;\r\n        player = msg.sender;\r\n\r\n        uint coinSide = now % 2;\r\n\r\n        if (_selectedSide == coinSide){\r\n            player.transfer(msg.value * 2);\r\n            emit flipResult(msg.sender, true);\r\n        }\r\n        else{\r\n            emit flipResult(msg.sender, false);\r\n        }\r\n        return true;\r\n    }\r\n\r\n    function getBalance() public view returns(uint){\r\n        return address(this).balance; //return contract balance\r\n    }\r\n}\r\n",
  "sourcePath": "D:/Programmierung/Solidity 201/CoinFlip/Smart Contract/contracts/CoinFlip.sol",
  "compiler": {
    "name": "solc",
    "version": "0.5.16+commit.9c3226ce.Emscripten.clang"
  },
  "schemaVersion": "3.3.4",
  "updatedAt": "2021-04-05T13:02:14.008Z",
  "devdoc": {
    "methods": {}
  },
  "userdoc": {
    "methods": {}
  }
}